{
  "_format": "hh-sol-artifact-1",
  "contractName": "EscrowNFT",
  "sourceName": "contracts/Escrow.sol",
  "abi": [
    {
      "inputs": [],
      "stateMutability": "nonpayable",
      "type": "constructor"
    },
    {
      "anonymous": false,
      "inputs": [
        {
          "indexed": true,
          "internalType": "address",
          "name": "owner",
          "type": "address"
        },
        {
          "indexed": true,
          "internalType": "address",
          "name": "approved",
          "type": "address"
        },
        {
          "indexed": true,
          "internalType": "uint256",
          "name": "tokenId",
          "type": "uint256"
        }
      ],
      "name": "Approval",
      "type": "event"
    },
    {
      "anonymous": false,
      "inputs": [
        {
          "indexed": true,
          "internalType": "address",
          "name": "owner",
          "type": "address"
        },
        {
          "indexed": true,
          "internalType": "address",
          "name": "operator",
          "type": "address"
        },
        {
          "indexed": false,
          "internalType": "bool",
          "name": "approved",
          "type": "bool"
        }
      ],
      "name": "ApprovalForAll",
      "type": "event"
    },
    {
      "anonymous": false,
      "inputs": [
        {
          "indexed": true,
          "internalType": "address",
          "name": "previousOwner",
          "type": "address"
        },
        {
          "indexed": true,
          "internalType": "address",
          "name": "newOwner",
          "type": "address"
        }
      ],
      "name": "OwnershipTransferred",
      "type": "event"
    },
    {
      "anonymous": false,
      "inputs": [
        {
          "indexed": true,
          "internalType": "address",
          "name": "from",
          "type": "address"
        },
        {
          "indexed": true,
          "internalType": "address",
          "name": "to",
          "type": "address"
        },
        {
          "indexed": true,
          "internalType": "uint256",
          "name": "tokenId",
          "type": "uint256"
        }
      ],
      "name": "Transfer",
      "type": "event"
    },
    {
      "inputs": [
        {
          "internalType": "uint256",
          "name": "",
          "type": "uint256"
        }
      ],
      "name": "amount",
      "outputs": [
        {
          "internalType": "uint256",
          "name": "",
          "type": "uint256"
        }
      ],
      "stateMutability": "view",
      "type": "function"
    },
    {
      "inputs": [
        {
          "internalType": "address",
          "name": "to",
          "type": "address"
        },
        {
          "internalType": "uint256",
          "name": "tokenId",
          "type": "uint256"
        }
      ],
      "name": "approve",
      "outputs": [],
      "stateMutability": "nonpayable",
      "type": "function"
    },
    {
      "inputs": [
        {
          "internalType": "address",
          "name": "owner",
          "type": "address"
        }
      ],
      "name": "balanceOf",
      "outputs": [
        {
          "internalType": "uint256",
          "name": "",
          "type": "uint256"
        }
      ],
      "stateMutability": "view",
      "type": "function"
    },
    {
      "inputs": [
        {
          "internalType": "uint256",
          "name": "tokenId",
          "type": "uint256"
        }
      ],
      "name": "burn",
      "outputs": [],
      "stateMutability": "nonpayable",
      "type": "function"
    },
    {
      "inputs": [],
      "name": "contractAddress",
      "outputs": [
        {
          "internalType": "address",
          "name": "",
          "type": "address"
        }
      ],
      "stateMutability": "view",
      "type": "function"
    },
    {
      "inputs": [
        {
          "internalType": "uint256",
          "name": "tokenId",
          "type": "uint256"
        }
      ],
      "name": "getApproved",
      "outputs": [
        {
          "internalType": "address",
          "name": "",
          "type": "address"
        }
      ],
      "stateMutability": "view",
      "type": "function"
    },
    {
      "inputs": [
        {
          "internalType": "address",
          "name": "owner",
          "type": "address"
        },
        {
          "internalType": "address",
          "name": "operator",
          "type": "address"
        }
      ],
      "name": "isApprovedForAll",
      "outputs": [
        {
          "internalType": "bool",
          "name": "",
          "type": "bool"
        }
      ],
      "stateMutability": "view",
      "type": "function"
    },
    {
      "inputs": [
        {
          "internalType": "uint256",
          "name": "",
          "type": "uint256"
        }
      ],
      "name": "matureTime",
      "outputs": [
        {
          "internalType": "uint256",
          "name": "",
          "type": "uint256"
        }
      ],
      "stateMutability": "view",
      "type": "function"
    },
    {
      "inputs": [
        {
          "internalType": "address",
          "name": "_recipient",
          "type": "address"
        },
        {
          "internalType": "uint256",
          "name": "_amount",
          "type": "uint256"
        },
        {
          "internalType": "uint256",
          "name": "_matureTime",
          "type": "uint256"
        }
      ],
      "name": "mint",
      "outputs": [
        {
          "internalType": "uint256",
          "name": "",
          "type": "uint256"
        }
      ],
      "stateMutability": "nonpayable",
      "type": "function"
    },
    {
      "inputs": [],
      "name": "name",
      "outputs": [
        {
          "internalType": "string",
          "name": "",
          "type": "string"
        }
      ],
      "stateMutability": "view",
      "type": "function"
    },
    {
      "inputs": [],
      "name": "owner",
      "outputs": [
        {
          "internalType": "address",
          "name": "",
          "type": "address"
        }
      ],
      "stateMutability": "view",
      "type": "function"
    },
    {
      "inputs": [
        {
          "internalType": "uint256",
          "name": "tokenId",
          "type": "uint256"
        }
      ],
      "name": "ownerOf",
      "outputs": [
        {
          "internalType": "address",
          "name": "",
          "type": "address"
        }
      ],
      "stateMutability": "view",
      "type": "function"
    },
    {
      "inputs": [],
      "name": "renounceOwnership",
      "outputs": [],
      "stateMutability": "nonpayable",
      "type": "function"
    },
    {
      "inputs": [
        {
          "internalType": "address",
          "name": "from",
          "type": "address"
        },
        {
          "internalType": "address",
          "name": "to",
          "type": "address"
        },
        {
          "internalType": "uint256",
          "name": "tokenId",
          "type": "uint256"
        }
      ],
      "name": "safeTransferFrom",
      "outputs": [],
      "stateMutability": "nonpayable",
      "type": "function"
    },
    {
      "inputs": [
        {
          "internalType": "address",
          "name": "from",
          "type": "address"
        },
        {
          "internalType": "address",
          "name": "to",
          "type": "address"
        },
        {
          "internalType": "uint256",
          "name": "tokenId",
          "type": "uint256"
        },
        {
          "internalType": "bytes",
          "name": "data",
          "type": "bytes"
        }
      ],
      "name": "safeTransferFrom",
      "outputs": [],
      "stateMutability": "nonpayable",
      "type": "function"
    },
    {
      "inputs": [
        {
          "internalType": "address",
          "name": "operator",
          "type": "address"
        },
        {
          "internalType": "bool",
          "name": "approved",
          "type": "bool"
        }
      ],
      "name": "setApprovalForAll",
      "outputs": [],
      "stateMutability": "nonpayable",
      "type": "function"
    },
    {
      "inputs": [
        {
          "internalType": "bytes4",
          "name": "_interfaceId",
          "type": "bytes4"
        }
      ],
      "name": "supportsInterface",
      "outputs": [
        {
          "internalType": "bool",
          "name": "",
          "type": "bool"
        }
      ],
      "stateMutability": "view",
      "type": "function"
    },
    {
      "inputs": [],
      "name": "symbol",
      "outputs": [
        {
          "internalType": "string",
          "name": "",
          "type": "string"
        }
      ],
      "stateMutability": "view",
      "type": "function"
    },
    {
      "inputs": [
        {
          "internalType": "uint256",
          "name": "index",
          "type": "uint256"
        }
      ],
      "name": "tokenByIndex",
      "outputs": [
        {
          "internalType": "uint256",
          "name": "",
          "type": "uint256"
        }
      ],
      "stateMutability": "view",
      "type": "function"
    },
    {
      "inputs": [],
      "name": "tokenCounter",
      "outputs": [
        {
          "internalType": "uint256",
          "name": "",
          "type": "uint256"
        }
      ],
      "stateMutability": "view",
      "type": "function"
    },
    {
      "inputs": [
        {
          "internalType": "uint256",
          "name": "_tokenId",
          "type": "uint256"
        }
      ],
      "name": "tokenDetails",
      "outputs": [
        {
          "internalType": "uint256",
          "name": "",
          "type": "uint256"
        },
        {
          "internalType": "uint256",
          "name": "",
          "type": "uint256"
        }
      ],
      "stateMutability": "view",
      "type": "function"
    },
    {
      "inputs": [
        {
          "internalType": "address",
          "name": "owner",
          "type": "address"
        },
        {
          "internalType": "uint256",
          "name": "index",
          "type": "uint256"
        }
      ],
      "name": "tokenOfOwnerByIndex",
      "outputs": [
        {
          "internalType": "uint256",
          "name": "",
          "type": "uint256"
        }
      ],
      "stateMutability": "view",
      "type": "function"
    },
    {
      "inputs": [
        {
          "internalType": "uint256",
          "name": "tokenId",
          "type": "uint256"
        }
      ],
      "name": "tokenURI",
      "outputs": [
        {
          "internalType": "string",
          "name": "",
          "type": "string"
        }
      ],
      "stateMutability": "view",
      "type": "function"
    },
    {
      "inputs": [],
      "name": "totalSupply",
      "outputs": [
        {
          "internalType": "uint256",
          "name": "",
          "type": "uint256"
        }
      ],
      "stateMutability": "view",
      "type": "function"
    },
    {
      "inputs": [
        {
          "internalType": "address",
          "name": "from",
          "type": "address"
        },
        {
          "internalType": "address",
          "name": "to",
          "type": "address"
        },
        {
          "internalType": "uint256",
          "name": "tokenId",
          "type": "uint256"
        }
      ],
      "name": "transferFrom",
      "outputs": [],
      "stateMutability": "nonpayable",
      "type": "function"
    },
    {
      "inputs": [
        {
          "internalType": "address",
          "name": "newOwner",
          "type": "address"
        }
      ],
      "name": "transferOwnership",
      "outputs": [],
      "stateMutability": "nonpayable",
      "type": "function"
    }
  ],
  "bytecode": "0x60806040526000600b553480156200001657600080fd5b506040518060400160405280600981526020017f457363726f774e465400000000000000000000000000000000000000000000008152506040518060400160405280600581526020017f4553435257000000000000000000000000000000000000000000000000000000815250816000908162000094919062000417565b508060019081620000a6919062000417565b505050620000c9620000bd620000cf60201b60201c565b620000d760201b60201c565b620004fe565b600033905090565b6000600a60009054906101000a900473ffffffffffffffffffffffffffffffffffffffff16905081600a60006101000a81548173ffffffffffffffffffffffffffffffffffffffff021916908373ffffffffffffffffffffffffffffffffffffffff1602179055508173ffffffffffffffffffffffffffffffffffffffff168173ffffffffffffffffffffffffffffffffffffffff167f8be0079c531659141344cd1fd0a4f28419497f9722a3daafe3b4186f6b6457e060405160405180910390a35050565b600081519050919050565b7f4e487b7100000000000000000000000000000000000000000000000000000000600052604160045260246000fd5b7f4e487b7100000000000000000000000000000000000000000000000000000000600052602260045260246000fd5b600060028204905060018216806200021f57607f821691505b602082108103620002355762000234620001d7565b5b50919050565b60008190508160005260206000209050919050565b60006020601f8301049050919050565b600082821b905092915050565b6000600883026200029f7fffffffffffffffffffffffffffffffffffffffffffffffffffffffffffffffff8262000260565b620002ab868362000260565b95508019841693508086168417925050509392505050565b6000819050919050565b6000819050919050565b6000620002f8620002f2620002ec84620002c3565b620002cd565b620002c3565b9050919050565b6000819050919050565b6200031483620002d7565b6200032c6200032382620002ff565b8484546200026d565b825550505050565b600090565b6200034362000334565b6200035081848462000309565b505050565b5b8181101562000378576200036c60008262000339565b60018101905062000356565b5050565b601f821115620003c75762000391816200023b565b6200039c8462000250565b81016020851015620003ac578190505b620003c4620003bb8562000250565b83018262000355565b50505b505050565b600082821c905092915050565b6000620003ec60001984600802620003cc565b1980831691505092915050565b6000620004078383620003d9565b9150826002028217905092915050565b62000422826200019d565b67ffffffffffffffff8111156200043e576200043d620001a8565b5b6200044a825462000206565b620004578282856200037c565b600060209050601f8311600181146200048f57600084156200047a578287015190505b620004868582620003f9565b865550620004f6565b601f1984166200049f866200023b565b60005b82811015620004c957848901518255600182019150602085019450602081019050620004a2565b86831015620004e95784890151620004e5601f891682620003d9565b8355505b6001600288020188555050505b505050505050565b612e5e806200050e6000396000f3fe608060405234801561001057600080fd5b506004361061018e5760003560e01c806370a08231116100de578063b88d4fde11610097578063e985e9c511610071578063e985e9c5146104bb578063f2fde38b146104eb578063f6b4dfb414610507578063fc314e31146105255761018e565b8063b88d4fde14610451578063c87b56dd1461046d578063d082e3811461049d5761018e565b806370a082311461038f578063715018a6146103bf5780638b0d0258146103c95780638da5cb5b146103f957806395d89b4114610417578063a22cb465146104355761018e565b806323b872dd1161014b57806342842e0e1161012557806342842e0e146102f757806342966c68146103135780634f6ccce71461032f5780636352211e1461035f5761018e565b806323b872dd1461027b5780632f745c591461029757806337adc663146102c75761018e565b806301ffc9a71461019357806306fdde03146101c3578063081812fc146101e1578063095ea7b314610211578063156e29f61461022d57806318160ddd1461025d575b600080fd5b6101ad60048036038101906101a89190611cba565b610556565b6040516101ba9190611d02565b60405180910390f35b6101cb61055d565b6040516101d89190611dad565b60405180910390f35b6101fb60048036038101906101f69190611e05565b6105ef565b6040516102089190611e73565b60405180910390f35b61022b60048036038101906102269190611eba565b610635565b005b61024760048036038101906102429190611efa565b61074c565b6040516102549190611f5c565b60405180910390f35b6102656107c6565b6040516102729190611f5c565b60405180910390f35b61029560048036038101906102909190611f77565b6107d3565b005b6102b160048036038101906102ac9190611eba565b610833565b6040516102be9190611f5c565b60405180910390f35b6102e160048036038101906102dc9190611e05565b6108d8565b6040516102ee9190611f5c565b60405180910390f35b610311600480360381019061030c9190611f77565b6108f0565b005b61032d60048036038101906103289190611e05565b610910565b005b61034960048036038101906103449190611e05565b61096c565b6040516103569190611f5c565b60405180910390f35b61037960048036038101906103749190611e05565b6109dd565b6040516103869190611e73565b60405180910390f35b6103a960048036038101906103a49190611fca565b610a8e565b6040516103b69190611f5c565b60405180910390f35b6103c7610b45565b005b6103e360048036038101906103de9190611e05565b610b59565b6040516103f09190611f5c565b60405180910390f35b610401610b71565b60405161040e9190611e73565b60405180910390f35b61041f610b9b565b60405161042c9190611dad565b60405180910390f35b61044f600480360381019061044a9190612023565b610c2d565b005b61046b60048036038101906104669190612198565b610c43565b005b61048760048036038101906104829190611e05565b610ca5565b6040516104949190611dad565b60405180910390f35b6104a5610d0d565b6040516104b29190611f5c565b60405180910390f35b6104d560048036038101906104d0919061221b565b610d13565b6040516104e29190611d02565b60405180910390f35b61050560048036038101906105009190611fca565b610da7565b005b61050f610e2a565b60405161051c9190611e73565b60405180910390f35b61053f600480360381019061053a9190611e05565b610e32565b60405161054d92919061225b565b60405180910390f35b6000919050565b60606000805461056c906122b3565b80601f0160208091040260200160405190810160405280929190818152602001828054610598906122b3565b80156105e55780601f106105ba576101008083540402835291602001916105e5565b820191906000526020600020905b8154815290600101906020018083116105c857829003601f168201915b5050505050905090565b60006105fa82610eae565b6004600083815260200190815260200160002060009054906101000a900473ffffffffffffffffffffffffffffffffffffffff169050919050565b6000610640826109dd565b90508073ffffffffffffffffffffffffffffffffffffffff168373ffffffffffffffffffffffffffffffffffffffff16036106b0576040517f08c379a00000000000000000000000000000000000000000000000000000000081526004016106a790612356565b60405180910390fd5b8073ffffffffffffffffffffffffffffffffffffffff166106cf610ef9565b73ffffffffffffffffffffffffffffffffffffffff1614806106fe57506106fd816106f8610ef9565b610d13565b5b61073d576040517f08c379a0000000000000000000000000000000000000000000000000000000008152600401610734906123e8565b60405180910390fd5b6107478383610f01565b505050565b6000610756610fba565b61076284600b54611038565b82600c6000600b5481526020019081526020016000208190555081600d6000600b54815260200190815260200160002081905550600b60008154809291906107a990612437565b91905055506001600b546107bd919061247f565b90509392505050565b6000600880549050905090565b6107e46107de610ef9565b82611211565b610823576040517f08c379a000000000000000000000000000000000000000000000000000000000815260040161081a90612525565b60405180910390fd5b61082e8383836112a6565b505050565b600061083e83610a8e565b821061087f576040517f08c379a0000000000000000000000000000000000000000000000000000000008152600401610876906125b7565b60405180910390fd5b600660008473ffffffffffffffffffffffffffffffffffffffff1673ffffffffffffffffffffffffffffffffffffffff168152602001908152602001600020600083815260200190815260200160002054905092915050565b600d6020528060005260406000206000915090505481565b61090b83838360405180602001604052806000815250610c43565b505050565b61092161091b610ef9565b82611211565b610960576040517f08c379a000000000000000000000000000000000000000000000000000000000815260040161095790612525565b60405180910390fd5b6109698161150c565b50565b60006109766107c6565b82106109b7576040517f08c379a00000000000000000000000000000000000000000000000000000000081526004016109ae90612649565b60405180910390fd5b600882815481106109cb576109ca612669565b5b90600052602060002001549050919050565b6000806002600084815260200190815260200160002060009054906101000a900473ffffffffffffffffffffffffffffffffffffffff169050600073ffffffffffffffffffffffffffffffffffffffff168173ffffffffffffffffffffffffffffffffffffffff1603610a85576040517f08c379a0000000000000000000000000000000000000000000000000000000008152600401610a7c906126e4565b60405180910390fd5b80915050919050565b60008073ffffffffffffffffffffffffffffffffffffffff168273ffffffffffffffffffffffffffffffffffffffff1603610afe576040517f08c379a0000000000000000000000000000000000000000000000000000000008152600401610af590612776565b60405180910390fd5b600360008373ffffffffffffffffffffffffffffffffffffffff1673ffffffffffffffffffffffffffffffffffffffff168152602001908152602001600020549050919050565b610b4d610fba565b610b576000611629565b565b600c6020528060005260406000206000915090505481565b6000600a60009054906101000a900473ffffffffffffffffffffffffffffffffffffffff16905090565b606060018054610baa906122b3565b80601f0160208091040260200160405190810160405280929190818152602001828054610bd6906122b3565b8015610c235780601f10610bf857610100808354040283529160200191610c23565b820191906000526020600020905b815481529060010190602001808311610c0657829003601f168201915b5050505050905090565b610c3f610c38610ef9565b83836116ef565b5050565b610c54610c4e610ef9565b83611211565b610c93576040517f08c379a0000000000000000000000000000000000000000000000000000000008152600401610c8a90612525565b60405180910390fd5b610c9f8484848461185b565b50505050565b6060610cb082610eae565b6000610cba6118b7565b90506000815111610cda5760405180602001604052806000815250610d05565b80610ce4846118ce565b604051602001610cf59291906127d2565b6040516020818303038152906040525b915050919050565b600b5481565b6000600560008473ffffffffffffffffffffffffffffffffffffffff1673ffffffffffffffffffffffffffffffffffffffff16815260200190815260200160002060008373ffffffffffffffffffffffffffffffffffffffff1673ffffffffffffffffffffffffffffffffffffffff16815260200190815260200160002060009054906101000a900460ff16905092915050565b610daf610fba565b600073ffffffffffffffffffffffffffffffffffffffff168173ffffffffffffffffffffffffffffffffffffffff1603610e1e576040517f08c379a0000000000000000000000000000000000000000000000000000000008152600401610e1590612868565b60405180910390fd5b610e2781611629565b50565b600030905090565b600080610e3e83611a2e565b610e7d576040517f08c379a0000000000000000000000000000000000000000000000000000000008152600401610e74906128fa565b60405180910390fd5b600c600084815260200190815260200160002054600d60008581526020019081526020016000205491509150915091565b610eb781611a2e565b610ef6576040517f08c379a0000000000000000000000000000000000000000000000000000000008152600401610eed906126e4565b60405180910390fd5b50565b600033905090565b816004600083815260200190815260200160002060006101000a81548173ffffffffffffffffffffffffffffffffffffffff021916908373ffffffffffffffffffffffffffffffffffffffff160217905550808273ffffffffffffffffffffffffffffffffffffffff16610f74836109dd565b73ffffffffffffffffffffffffffffffffffffffff167f8c5be1e5ebec7d5bd14f71427d1e84f3dd0314c0f7b2291e5b200ac8c7c3b92560405160405180910390a45050565b610fc2610ef9565b73ffffffffffffffffffffffffffffffffffffffff16610fe0610b71565b73ffffffffffffffffffffffffffffffffffffffff1614611036576040517f08c379a000000000000000000000000000000000000000000000000000000000815260040161102d90612966565b60405180910390fd5b565b600073ffffffffffffffffffffffffffffffffffffffff168273ffffffffffffffffffffffffffffffffffffffff16036110a7576040517f08c379a000000000000000000000000000000000000000000000000000000000815260040161109e906129d2565b60405180910390fd5b6110b081611a2e565b156110f0576040517f08c379a00000000000000000000000000000000000000000000000000000000081526004016110e790612a3e565b60405180910390fd5b6110fc60008383611a9a565b6001600360008473ffffffffffffffffffffffffffffffffffffffff1673ffffffffffffffffffffffffffffffffffffffff168152602001908152602001600020600082825461114c9190612a5e565b92505081905550816002600083815260200190815260200160002060006101000a81548173ffffffffffffffffffffffffffffffffffffffff021916908373ffffffffffffffffffffffffffffffffffffffff160217905550808273ffffffffffffffffffffffffffffffffffffffff16600073ffffffffffffffffffffffffffffffffffffffff167fddf252ad1be2c89b69c2b068fc378daa952ba7f163c4a11628f55a4df523b3ef60405160405180910390a461120d60008383611a9f565b5050565b60008061121d836109dd565b90508073ffffffffffffffffffffffffffffffffffffffff168473ffffffffffffffffffffffffffffffffffffffff16148061125f575061125e8185610d13565b5b8061129d57508373ffffffffffffffffffffffffffffffffffffffff16611285846105ef565b73ffffffffffffffffffffffffffffffffffffffff16145b91505092915050565b8273ffffffffffffffffffffffffffffffffffffffff166112c6826109dd565b73ffffffffffffffffffffffffffffffffffffffff161461131c576040517f08c379a000000000000000000000000000000000000000000000000000000000815260040161131390612b04565b60405180910390fd5b600073ffffffffffffffffffffffffffffffffffffffff168273ffffffffffffffffffffffffffffffffffffffff160361138b576040517f08c379a000000000000000000000000000000000000000000000000000000000815260040161138290612b96565b60405180910390fd5b611396838383611a9a565b6113a1600082610f01565b6001600360008573ffffffffffffffffffffffffffffffffffffffff1673ffffffffffffffffffffffffffffffffffffffff16815260200190815260200160002060008282546113f1919061247f565b925050819055506001600360008473ffffffffffffffffffffffffffffffffffffffff1673ffffffffffffffffffffffffffffffffffffffff16815260200190815260200160002060008282546114489190612a5e565b92505081905550816002600083815260200190815260200160002060006101000a81548173ffffffffffffffffffffffffffffffffffffffff021916908373ffffffffffffffffffffffffffffffffffffffff160217905550808273ffffffffffffffffffffffffffffffffffffffff168473ffffffffffffffffffffffffffffffffffffffff167fddf252ad1be2c89b69c2b068fc378daa952ba7f163c4a11628f55a4df523b3ef60405160405180910390a4611507838383611a9f565b505050565b6000611517826109dd565b905061152581600084611a9a565b611530600083610f01565b6001600360008373ffffffffffffffffffffffffffffffffffffffff1673ffffffffffffffffffffffffffffffffffffffff1681526020019081526020016000206000828254611580919061247f565b925050819055506002600083815260200190815260200160002060006101000a81549073ffffffffffffffffffffffffffffffffffffffff021916905581600073ffffffffffffffffffffffffffffffffffffffff168273ffffffffffffffffffffffffffffffffffffffff167fddf252ad1be2c89b69c2b068fc378daa952ba7f163c4a11628f55a4df523b3ef60405160405180910390a461162581600084611a9f565b5050565b6000600a60009054906101000a900473ffffffffffffffffffffffffffffffffffffffff16905081600a60006101000a81548173ffffffffffffffffffffffffffffffffffffffff021916908373ffffffffffffffffffffffffffffffffffffffff1602179055508173ffffffffffffffffffffffffffffffffffffffff168173ffffffffffffffffffffffffffffffffffffffff167f8be0079c531659141344cd1fd0a4f28419497f9722a3daafe3b4186f6b6457e060405160405180910390a35050565b8173ffffffffffffffffffffffffffffffffffffffff168373ffffffffffffffffffffffffffffffffffffffff160361175d576040517f08c379a000000000000000000000000000000000000000000000000000000000815260040161175490612c02565b60405180910390fd5b80600560008573ffffffffffffffffffffffffffffffffffffffff1673ffffffffffffffffffffffffffffffffffffffff16815260200190815260200160002060008473ffffffffffffffffffffffffffffffffffffffff1673ffffffffffffffffffffffffffffffffffffffff16815260200190815260200160002060006101000a81548160ff0219169083151502179055508173ffffffffffffffffffffffffffffffffffffffff168373ffffffffffffffffffffffffffffffffffffffff167f17307eab39ab6107e8899845ad3d59bd9653f200f220920489ca2b5937696c318360405161184e9190611d02565b60405180910390a3505050565b6118668484846112a6565b61187284848484611aa4565b6118b1576040517f08c379a00000000000000000000000000000000000000000000000000000000081526004016118a890612c94565b60405180910390fd5b50505050565b606060405180602001604052806000815250905090565b606060008203611915576040518060400160405280600181526020017f30000000000000000000000000000000000000000000000000000000000000008152509050611a29565b600082905060005b6000821461194757808061193090612437565b915050600a826119409190612ce3565b915061191d565b60008167ffffffffffffffff8111156119635761196261206d565b5b6040519080825280601f01601f1916602001820160405280156119955781602001600182028036833780820191505090505b5090505b60008514611a22576001826119ae919061247f565b9150600a856119bd9190612d14565b60306119c99190612a5e565b60f81b8183815181106119df576119de612669565b5b60200101907effffffffffffffffffffffffffffffffffffffffffffffffffffffffffffff1916908160001a905350600a85611a1b9190612ce3565b9450611999565b8093505050505b919050565b60008073ffffffffffffffffffffffffffffffffffffffff166002600084815260200190815260200160002060009054906101000a900473ffffffffffffffffffffffffffffffffffffffff1673ffffffffffffffffffffffffffffffffffffffff1614159050919050565b505050565b505050565b6000611ac58473ffffffffffffffffffffffffffffffffffffffff16611c2b565b15611c1e578373ffffffffffffffffffffffffffffffffffffffff1663150b7a02611aee610ef9565b8786866040518563ffffffff1660e01b8152600401611b109493929190612d9a565b6020604051808303816000875af1925050508015611b4c57506040513d601f19601f82011682018060405250810190611b499190612dfb565b60015b611bce573d8060008114611b7c576040519150601f19603f3d011682016040523d82523d6000602084013e611b81565b606091505b506000815103611bc6576040517f08c379a0000000000000000000000000000000000000000000000000000000008152600401611bbd90612c94565b60405180910390fd5b805181602001fd5b63150b7a0260e01b7bffffffffffffffffffffffffffffffffffffffffffffffffffffffff1916817bffffffffffffffffffffffffffffffffffffffffffffffffffffffff191614915050611c23565b600190505b949350505050565b6000808273ffffffffffffffffffffffffffffffffffffffff163b119050919050565b6000604051905090565b600080fd5b600080fd5b60007fffffffff0000000000000000000000000000000000000000000000000000000082169050919050565b611c9781611c62565b8114611ca257600080fd5b50565b600081359050611cb481611c8e565b92915050565b600060208284031215611cd057611ccf611c58565b5b6000611cde84828501611ca5565b91505092915050565b60008115159050919050565b611cfc81611ce7565b82525050565b6000602082019050611d176000830184611cf3565b92915050565b600081519050919050565b600082825260208201905092915050565b60005b83811015611d57578082015181840152602081019050611d3c565b60008484015250505050565b6000601f19601f8301169050919050565b6000611d7f82611d1d565b611d898185611d28565b9350611d99818560208601611d39565b611da281611d63565b840191505092915050565b60006020820190508181036000830152611dc78184611d74565b905092915050565b6000819050919050565b611de281611dcf565b8114611ded57600080fd5b50565b600081359050611dff81611dd9565b92915050565b600060208284031215611e1b57611e1a611c58565b5b6000611e2984828501611df0565b91505092915050565b600073ffffffffffffffffffffffffffffffffffffffff82169050919050565b6000611e5d82611e32565b9050919050565b611e6d81611e52565b82525050565b6000602082019050611e886000830184611e64565b92915050565b611e9781611e52565b8114611ea257600080fd5b50565b600081359050611eb481611e8e565b92915050565b60008060408385031215611ed157611ed0611c58565b5b6000611edf85828601611ea5565b9250506020611ef085828601611df0565b9150509250929050565b600080600060608486031215611f1357611f12611c58565b5b6000611f2186828701611ea5565b9350506020611f3286828701611df0565b9250506040611f4386828701611df0565b9150509250925092565b611f5681611dcf565b82525050565b6000602082019050611f716000830184611f4d565b92915050565b600080600060608486031215611f9057611f8f611c58565b5b6000611f9e86828701611ea5565b9350506020611faf86828701611ea5565b9250506040611fc086828701611df0565b9150509250925092565b600060208284031215611fe057611fdf611c58565b5b6000611fee84828501611ea5565b91505092915050565b61200081611ce7565b811461200b57600080fd5b50565b60008135905061201d81611ff7565b92915050565b6000806040838503121561203a57612039611c58565b5b600061204885828601611ea5565b92505060206120598582860161200e565b9150509250929050565b600080fd5b600080fd5b7f4e487b7100000000000000000000000000000000000000000000000000000000600052604160045260246000fd5b6120a582611d63565b810181811067ffffffffffffffff821117156120c4576120c361206d565b5b80604052505050565b60006120d7611c4e565b90506120e3828261209c565b919050565b600067ffffffffffffffff8211156121035761210261206d565b5b61210c82611d63565b9050602081019050919050565b82818337600083830152505050565b600061213b612136846120e8565b6120cd565b90508281526020810184848401111561215757612156612068565b5b612162848285612119565b509392505050565b600082601f83011261217f5761217e612063565b5b813561218f848260208601612128565b91505092915050565b600080600080608085870312156121b2576121b1611c58565b5b60006121c087828801611ea5565b94505060206121d187828801611ea5565b93505060406121e287828801611df0565b925050606085013567ffffffffffffffff81111561220357612202611c5d565b5b61220f8782880161216a565b91505092959194509250565b6000806040838503121561223257612231611c58565b5b600061224085828601611ea5565b925050602061225185828601611ea5565b9150509250929050565b60006040820190506122706000830185611f4d565b61227d6020830184611f4d565b9392505050565b7f4e487b7100000000000000000000000000000000000000000000000000000000600052602260045260246000fd5b600060028204905060018216806122cb57607f821691505b6020821081036122de576122dd612284565b5b50919050565b7f4552433732313a20617070726f76616c20746f2063757272656e74206f776e6560008201527f7200000000000000000000000000000000000000000000000000000000000000602082015250565b6000612340602183611d28565b915061234b826122e4565b604082019050919050565b6000602082019050818103600083015261236f81612333565b9050919050565b7f4552433732313a20617070726f76652063616c6c6572206973206e6f7420746f60008201527f6b656e206f776e6572206e6f7220617070726f76656420666f7220616c6c0000602082015250565b60006123d2603e83611d28565b91506123dd82612376565b604082019050919050565b60006020820190508181036000830152612401816123c5565b9050919050565b7f4e487b7100000000000000000000000000000000000000000000000000000000600052601160045260246000fd5b600061244282611dcf565b91507fffffffffffffffffffffffffffffffffffffffffffffffffffffffffffffffff820361247457612473612408565b5b600182019050919050565b600061248a82611dcf565b915061249583611dcf565b92508282039050818111156124ad576124ac612408565b5b92915050565b7f4552433732313a2063616c6c6572206973206e6f7420746f6b656e206f776e6560008201527f72206e6f7220617070726f766564000000000000000000000000000000000000602082015250565b600061250f602e83611d28565b915061251a826124b3565b604082019050919050565b6000602082019050818103600083015261253e81612502565b9050919050565b7f455243373231456e756d657261626c653a206f776e657220696e646578206f7560008201527f74206f6620626f756e6473000000000000000000000000000000000000000000602082015250565b60006125a1602b83611d28565b91506125ac82612545565b604082019050919050565b600060208201905081810360008301526125d081612594565b9050919050565b7f455243373231456e756d657261626c653a20676c6f62616c20696e646578206f60008201527f7574206f6620626f756e64730000000000000000000000000000000000000000602082015250565b6000612633602c83611d28565b915061263e826125d7565b604082019050919050565b6000602082019050818103600083015261266281612626565b9050919050565b7f4e487b7100000000000000000000000000000000000000000000000000000000600052603260045260246000fd5b7f4552433732313a20696e76616c696420746f6b656e2049440000000000000000600082015250565b60006126ce601883611d28565b91506126d982612698565b602082019050919050565b600060208201905081810360008301526126fd816126c1565b9050919050565b7f4552433732313a2061646472657373207a65726f206973206e6f74206120766160008201527f6c6964206f776e65720000000000000000000000000000000000000000000000602082015250565b6000612760602983611d28565b915061276b82612704565b604082019050919050565b6000602082019050818103600083015261278f81612753565b9050919050565b600081905092915050565b60006127ac82611d1d565b6127b68185612796565b93506127c6818560208601611d39565b80840191505092915050565b60006127de82856127a1565b91506127ea82846127a1565b91508190509392505050565b7f4f776e61626c653a206e6577206f776e657220697320746865207a65726f206160008201527f6464726573730000000000000000000000000000000000000000000000000000602082015250565b6000612852602683611d28565b915061285d826127f6565b604082019050919050565b6000602082019050818103600083015261288181612845565b9050919050565b7f457363726f774e46543a20517565727920666f72206e6f6e6578697374656e7460008201527f20746f6b656e0000000000000000000000000000000000000000000000000000602082015250565b60006128e4602683611d28565b91506128ef82612888565b604082019050919050565b60006020820190508181036000830152612913816128d7565b9050919050565b7f4f776e61626c653a2063616c6c6572206973206e6f7420746865206f776e6572600082015250565b6000612950602083611d28565b915061295b8261291a565b602082019050919050565b6000602082019050818103600083015261297f81612943565b9050919050565b7f4552433732313a206d696e7420746f20746865207a65726f2061646472657373600082015250565b60006129bc602083611d28565b91506129c782612986565b602082019050919050565b600060208201905081810360008301526129eb816129af565b9050919050565b7f4552433732313a20746f6b656e20616c7265616479206d696e74656400000000600082015250565b6000612a28601c83611d28565b9150612a33826129f2565b602082019050919050565b60006020820190508181036000830152612a5781612a1b565b9050919050565b6000612a6982611dcf565b9150612a7483611dcf565b9250828201905080821115612a8c57612a8b612408565b5b92915050565b7f4552433732313a207472616e736665722066726f6d20696e636f72726563742060008201527f6f776e6572000000000000000000000000000000000000000000000000000000602082015250565b6000612aee602583611d28565b9150612af982612a92565b604082019050919050565b60006020820190508181036000830152612b1d81612ae1565b9050919050565b7f4552433732313a207472616e7366657220746f20746865207a65726f2061646460008201527f7265737300000000000000000000000000000000000000000000000000000000602082015250565b6000612b80602483611d28565b9150612b8b82612b24565b604082019050919050565b60006020820190508181036000830152612baf81612b73565b9050919050565b7f4552433732313a20617070726f766520746f2063616c6c657200000000000000600082015250565b6000612bec601983611d28565b9150612bf782612bb6565b602082019050919050565b60006020820190508181036000830152612c1b81612bdf565b9050919050565b7f4552433732313a207472616e7366657220746f206e6f6e20455243373231526560008201527f63656976657220696d706c656d656e7465720000000000000000000000000000602082015250565b6000612c7e603283611d28565b9150612c8982612c22565b604082019050919050565b60006020820190508181036000830152612cad81612c71565b9050919050565b7f4e487b7100000000000000000000000000000000000000000000000000000000600052601260045260246000fd5b6000612cee82611dcf565b9150612cf983611dcf565b925082612d0957612d08612cb4565b5b828204905092915050565b6000612d1f82611dcf565b9150612d2a83611dcf565b925082612d3a57612d39612cb4565b5b828206905092915050565b600081519050919050565b600082825260208201905092915050565b6000612d6c82612d45565b612d768185612d50565b9350612d86818560208601611d39565b612d8f81611d63565b840191505092915050565b6000608082019050612daf6000830187611e64565b612dbc6020830186611e64565b612dc96040830185611f4d565b8181036060830152612ddb8184612d61565b905095945050505050565b600081519050612df581611c8e565b92915050565b600060208284031215612e1157612e10611c58565b5b6000612e1f84828501612de6565b9150509291505056fea26469706673582212207eea6869b766ba467cf358c5f8792a5bc64b3844142264920ae0a44d373e63c164736f6c63430008110033",
  "linkReferences": {},
  "deployedLinkReferences": {}
}