{
  "_format": "hh-sol-artifact-1",
  "contractName": "Escrow",
  "sourceName": "contracts/Escrow.sol",
  "abi": [
    {
      "anonymous": false,
      "inputs": [
        {
          "indexed": false,
          "internalType": "address",
          "name": "_from",
          "type": "address"
        },
        {
          "indexed": false,
          "internalType": "address",
          "name": "_to",
          "type": "address"
        },
        {
          "indexed": false,
          "internalType": "uint256",
          "name": "_amount",
          "type": "uint256"
        },
        {
          "indexed": false,
          "internalType": "uint256",
          "name": "_matureTime",
          "type": "uint256"
        }
      ],
      "name": "Escrowed",
      "type": "event"
    },
    {
      "anonymous": false,
      "inputs": [
        {
          "indexed": false,
          "internalType": "address",
          "name": "_escrowNft",
          "type": "address"
        }
      ],
      "name": "Initialized",
      "type": "event"
    },
    {
      "anonymous": false,
      "inputs": [
        {
          "indexed": true,
          "internalType": "address",
          "name": "previousOwner",
          "type": "address"
        },
        {
          "indexed": true,
          "internalType": "address",
          "name": "newOwner",
          "type": "address"
        }
      ],
      "name": "OwnershipTransferred",
      "type": "event"
    },
    {
      "anonymous": false,
      "inputs": [
        {
          "indexed": false,
          "internalType": "address",
          "name": "_recipient",
          "type": "address"
        },
        {
          "indexed": false,
          "internalType": "uint256",
          "name": "_amount",
          "type": "uint256"
        }
      ],
      "name": "Redeemed",
      "type": "event"
    },
    {
      "inputs": [],
      "name": "contractAddress",
      "outputs": [
        {
          "internalType": "address",
          "name": "",
          "type": "address"
        }
      ],
      "stateMutability": "view",
      "type": "function"
    },
    {
      "inputs": [
        {
          "internalType": "address",
          "name": "_recipient",
          "type": "address"
        },
        {
          "internalType": "uint256",
          "name": "_duration",
          "type": "uint256"
        }
      ],
      "name": "escrowEth",
      "outputs": [],
      "stateMutability": "payable",
      "type": "function"
    },
    {
      "inputs": [],
      "name": "escrowNFT",
      "outputs": [
        {
          "internalType": "contract EscrowNFT",
          "name": "",
          "type": "address"
        }
      ],
      "stateMutability": "view",
      "type": "function"
    },
    {
      "inputs": [
        {
          "internalType": "address",
          "name": "_escrowNftAddress",
          "type": "address"
        }
      ],
      "name": "initialize",
      "outputs": [],
      "stateMutability": "nonpayable",
      "type": "function"
    },
    {
      "inputs": [],
      "name": "initialized",
      "outputs": [
        {
          "internalType": "bool",
          "name": "",
          "type": "bool"
        }
      ],
      "stateMutability": "view",
      "type": "function"
    },
    {
      "inputs": [],
      "name": "owner",
      "outputs": [
        {
          "internalType": "address",
          "name": "",
          "type": "address"
        }
      ],
      "stateMutability": "view",
      "type": "function"
    },
    {
      "inputs": [],
      "name": "redeemAllAvailableEth",
      "outputs": [],
      "stateMutability": "nonpayable",
      "type": "function"
    },
    {
      "inputs": [
        {
          "internalType": "uint256",
          "name": "_tokenId",
          "type": "uint256"
        }
      ],
      "name": "redeemEthFromEscrow",
      "outputs": [],
      "stateMutability": "nonpayable",
      "type": "function"
    },
    {
      "inputs": [],
      "name": "renounceOwnership",
      "outputs": [],
      "stateMutability": "nonpayable",
      "type": "function"
    },
    {
      "inputs": [
        {
          "internalType": "address",
          "name": "newOwner",
          "type": "address"
        }
      ],
      "name": "transferOwnership",
      "outputs": [],
      "stateMutability": "nonpayable",
      "type": "function"
    }
  ],
  "bytecode": "0x60806040526000600160146101000a81548160ff02191690831515021790555034801561002b57600080fd5b5061004861003d61004d60201b60201c565b61005560201b60201c565b610119565b600033905090565b60008060009054906101000a900473ffffffffffffffffffffffffffffffffffffffff169050816000806101000a81548173ffffffffffffffffffffffffffffffffffffffff021916908373ffffffffffffffffffffffffffffffffffffffff1602179055508173ffffffffffffffffffffffffffffffffffffffff168173ffffffffffffffffffffffffffffffffffffffff167f8be0079c531659141344cd1fd0a4f28419497f9722a3daafe3b4186f6b6457e060405160405180910390a35050565b611921806101286000396000f3fe6080604052600436106100915760003560e01c80638da5cb5b116100595780638da5cb5b14610143578063c219afee1461016e578063c4d66de81461018a578063f2fde38b146101b3578063f6b4dfb4146101dc57610091565b8063158ef93e146100965780633a238dea146100c157806341293f24146100d85780636dea48bb14610101578063715018a61461012c575b600080fd5b3480156100a257600080fd5b506100ab610207565b6040516100b89190610f74565b60405180910390f35b3480156100cd57600080fd5b506100d661021a565b005b3480156100e457600080fd5b506100ff60048036038101906100fa9190610fca565b610683565b005b34801561010d57600080fd5b50610116610a38565b6040516101239190611076565b60405180910390f35b34801561013857600080fd5b50610141610a5e565b005b34801561014f57600080fd5b50610158610a72565b60405161016591906110b2565b60405180910390f35b610188600480360381019061018391906110f9565b610a9b565b005b34801561019657600080fd5b506101b160048036038101906101ac9190611139565b610c97565b005b3480156101bf57600080fd5b506101da60048036038101906101d59190611139565b610d84565b005b3480156101e857600080fd5b506101f1610e07565b6040516101fe91906110b2565b60405180910390f35b600160149054906101000a900460ff1681565b600160149054906101000a900460ff16610269576040517f08c379a0000000000000000000000000000000000000000000000000000000008152600401610260906111c3565b60405180910390fd5b6000600160009054906101000a900473ffffffffffffffffffffffffffffffffffffffff1673ffffffffffffffffffffffffffffffffffffffff166370a08231336040518263ffffffff1660e01b81526004016102c691906110b2565b602060405180830381865afa1580156102e3573d6000803e3d6000fd5b505050506040513d601f19601f8201168201806040525081019061030791906111f8565b90506000811161034c576040517f08c379a000000000000000000000000000000000000000000000000000000000815260040161034390611271565b60405180910390fd5b6000805b82811015610555576000600160009054906101000a900473ffffffffffffffffffffffffffffffffffffffff1673ffffffffffffffffffffffffffffffffffffffff16632f745c5933846040518363ffffffff1660e01b81526004016103b79291906112a0565b602060405180830381865afa1580156103d4573d6000803e3d6000fd5b505050506040513d601f19601f820116820180604052508101906103f891906111f8565b9050600080600160009054906101000a900473ffffffffffffffffffffffffffffffffffffffff1673ffffffffffffffffffffffffffffffffffffffff1663fc314e31846040518263ffffffff1660e01b815260040161045891906112c9565b6040805180830381865afa158015610474573d6000803e3d6000fd5b505050506040513d601f19601f8201168201806040525081019061049891906112e4565b9150915042811161053f57600160009054906101000a900473ffffffffffffffffffffffffffffffffffffffff1673ffffffffffffffffffffffffffffffffffffffff166342966c68846040518263ffffffff1660e01b81526004016104fe91906112c9565b600060405180830381600087803b15801561051857600080fd5b505af115801561052c573d6000803e3d6000fd5b50505050818561053c9190611353565b94505b505050808061054d90611387565b915050610350565b5060008111610599576040517f08c379a00000000000000000000000000000000000000000000000000000000081526004016105909061141b565b60405180910390fd5b60003373ffffffffffffffffffffffffffffffffffffffff16826040516105bf9061146c565b60006040518083038185875af1925050503d80600081146105fc576040519150601f19603f3d011682016040523d82523d6000602084013e610601565b606091505b5050905080610645576040517f08c379a000000000000000000000000000000000000000000000000000000000815260040161063c906114cd565b60405180910390fd5b7f4896181ff8f4543cc00db9fe9b6fb7e6f032b7eb772c72ab1ec1b4d2e03b936933836040516106769291906112a0565b60405180910390a1505050565b600160149054906101000a900460ff166106d2576040517f08c379a00000000000000000000000000000000000000000000000000000000081526004016106c9906111c3565b60405180910390fd5b3373ffffffffffffffffffffffffffffffffffffffff16600160009054906101000a900473ffffffffffffffffffffffffffffffffffffffff1673ffffffffffffffffffffffffffffffffffffffff16636352211e836040518263ffffffff1660e01b815260040161074491906112c9565b602060405180830381865afa158015610761573d6000803e3d6000fd5b505050506040513d601f19601f820116820180604052508101906107859190611502565b73ffffffffffffffffffffffffffffffffffffffff16146107db576040517f08c379a00000000000000000000000000000000000000000000000000000000081526004016107d2906115a1565b60405180910390fd5b600080600160009054906101000a900473ffffffffffffffffffffffffffffffffffffffff1673ffffffffffffffffffffffffffffffffffffffff1663fc314e31846040518263ffffffff1660e01b815260040161083991906112c9565b6040805180830381865afa158015610855573d6000803e3d6000fd5b505050506040513d601f19601f8201168201806040525081019061087991906112e4565b91509150428111156108c0576040517f08c379a00000000000000000000000000000000000000000000000000000000081526004016108b79061160d565b60405180910390fd5b600160009054906101000a900473ffffffffffffffffffffffffffffffffffffffff1673ffffffffffffffffffffffffffffffffffffffff166342966c68846040518263ffffffff1660e01b815260040161091b91906112c9565b600060405180830381600087803b15801561093557600080fd5b505af1158015610949573d6000803e3d6000fd5b5050505060003373ffffffffffffffffffffffffffffffffffffffff16836040516109739061146c565b60006040518083038185875af1925050503d80600081146109b0576040519150601f19603f3d011682016040523d82523d6000602084013e6109b5565b606091505b50509050806109f9576040517f08c379a00000000000000000000000000000000000000000000000000000000081526004016109f0906114cd565b60405180910390fd5b7f4896181ff8f4543cc00db9fe9b6fb7e6f032b7eb772c72ab1ec1b4d2e03b93693384604051610a2a9291906112a0565b60405180910390a150505050565b600160009054906101000a900473ffffffffffffffffffffffffffffffffffffffff1681565b610a66610e0f565b610a706000610e8d565b565b60008060009054906101000a900473ffffffffffffffffffffffffffffffffffffffff16905090565b600160149054906101000a900460ff16610aea576040517f08c379a0000000000000000000000000000000000000000000000000000000008152600401610ae1906111c3565b60405180910390fd5b600073ffffffffffffffffffffffffffffffffffffffff168273ffffffffffffffffffffffffffffffffffffffff1603610b59576040517f08c379a0000000000000000000000000000000000000000000000000000000008152600401610b5090611679565b60405180910390fd5b60003411610b9c576040517f08c379a0000000000000000000000000000000000000000000000000000000008152600401610b93906116e5565b60405180910390fd5b600034905060008242610baf9190611353565b9050600160009054906101000a900473ffffffffffffffffffffffffffffffffffffffff1673ffffffffffffffffffffffffffffffffffffffff1663156e29f68584846040518463ffffffff1660e01b8152600401610c1093929190611705565b6020604051808303816000875af1158015610c2f573d6000803e3d6000fd5b505050506040513d601f19601f82011682018060405250810190610c5391906111f8565b507fc6557a5c542311b685819c1905395461d00d97daef3e67f40644bbef694e30a933858484604051610c89949392919061173c565b60405180910390a150505050565b610c9f610e0f565b600160149054906101000a900460ff1615610cef576040517f08c379a0000000000000000000000000000000000000000000000000000000008152600401610ce6906117cd565b60405180910390fd5b80600160006101000a81548173ffffffffffffffffffffffffffffffffffffffff021916908373ffffffffffffffffffffffffffffffffffffffff16021790555060018060146101000a81548160ff0219169083151502179055507f908408e307fc569b417f6cbec5d5a06f44a0a505ac0479b47d421a4b2fd6a1e681604051610d7991906110b2565b60405180910390a150565b610d8c610e0f565b600073ffffffffffffffffffffffffffffffffffffffff168173ffffffffffffffffffffffffffffffffffffffff1603610dfb576040517f08c379a0000000000000000000000000000000000000000000000000000000008152600401610df29061185f565b60405180910390fd5b610e0481610e8d565b50565b600030905090565b610e17610f51565b73ffffffffffffffffffffffffffffffffffffffff16610e35610a72565b73ffffffffffffffffffffffffffffffffffffffff1614610e8b576040517f08c379a0000000000000000000000000000000000000000000000000000000008152600401610e82906118cb565b60405180910390fd5b565b60008060009054906101000a900473ffffffffffffffffffffffffffffffffffffffff169050816000806101000a81548173ffffffffffffffffffffffffffffffffffffffff021916908373ffffffffffffffffffffffffffffffffffffffff1602179055508173ffffffffffffffffffffffffffffffffffffffff168173ffffffffffffffffffffffffffffffffffffffff167f8be0079c531659141344cd1fd0a4f28419497f9722a3daafe3b4186f6b6457e060405160405180910390a35050565b600033905090565b60008115159050919050565b610f6e81610f59565b82525050565b6000602082019050610f896000830184610f65565b92915050565b600080fd5b6000819050919050565b610fa781610f94565b8114610fb257600080fd5b50565b600081359050610fc481610f9e565b92915050565b600060208284031215610fe057610fdf610f8f565b5b6000610fee84828501610fb5565b91505092915050565b600073ffffffffffffffffffffffffffffffffffffffff82169050919050565b6000819050919050565b600061103c61103761103284610ff7565b611017565b610ff7565b9050919050565b600061104e82611021565b9050919050565b600061106082611043565b9050919050565b61107081611055565b82525050565b600060208201905061108b6000830184611067565b92915050565b600061109c82610ff7565b9050919050565b6110ac81611091565b82525050565b60006020820190506110c760008301846110a3565b92915050565b6110d681611091565b81146110e157600080fd5b50565b6000813590506110f3816110cd565b92915050565b600080604083850312156111105761110f610f8f565b5b600061111e858286016110e4565b925050602061112f85828601610fb5565b9150509250929050565b60006020828403121561114f5761114e610f8f565b5b600061115d848285016110e4565b91505092915050565b600082825260208201905092915050565b7f436f6e7472616374206973206e6f742079657420696e697469616c697a656400600082015250565b60006111ad601f83611166565b91506111b882611177565b602082019050919050565b600060208201905081810360008301526111dc816111a0565b9050919050565b6000815190506111f281610f9e565b92915050565b60006020828403121561120e5761120d610f8f565b5b600061121c848285016111e3565b91505092915050565b7f4e6f20657363726f77204e46547320746f2072656465656d2e00000000000000600082015250565b600061125b601983611166565b915061126682611225565b602082019050919050565b6000602082019050818103600083015261128a8161124e565b9050919050565b61129a81610f94565b82525050565b60006040820190506112b560008301856110a3565b6112c26020830184611291565b9392505050565b60006020820190506112de6000830184611291565b92915050565b600080604083850312156112fb576112fa610f8f565b5b6000611309858286016111e3565b925050602061131a858286016111e3565b9150509250929050565b7f4e487b7100000000000000000000000000000000000000000000000000000000600052601160045260246000fd5b600061135e82610f94565b915061136983610f94565b925082820190508082111561138157611380611324565b5b92915050565b600061139282610f94565b91507fffffffffffffffffffffffffffffffffffffffffffffffffffffffffffffffff82036113c4576113c3611324565b5b600182019050919050565b7f4e6f20457468657220746f2072656465656d2e00000000000000000000000000600082015250565b6000611405601383611166565b9150611410826113cf565b602082019050919050565b60006020820190508181036000830152611434816113f8565b9050919050565b600081905092915050565b50565b600061145660008361143b565b915061146182611446565b600082019050919050565b600061147782611449565b9150819050919050565b7f5472616e73666572206661696c65642e00000000000000000000000000000000600082015250565b60006114b7601083611166565b91506114c282611481565b602082019050919050565b600060208201905081810360008301526114e6816114aa565b9050919050565b6000815190506114fc816110cd565b92915050565b60006020828403121561151857611517610f8f565b5b6000611526848285016114ed565b91505092915050565b7f4d757374206f776e20746f6b656e20746f20636c61696d20756e6465726c796960008201527f6e67204574680000000000000000000000000000000000000000000000000000602082015250565b600061158b602683611166565b91506115968261152f565b604082019050919050565b600060208201905081810360008301526115ba8161157e565b9050919050565b7f457363726f7720706572696f64206e6f7420657870697265642e000000000000600082015250565b60006115f7601a83611166565b9150611602826115c1565b602082019050919050565b60006020820190508181036000830152611626816115ea565b9050919050565b7f43616e6e6f7420657363726f7720746f207a65726f20616464726573732e0000600082015250565b6000611663601e83611166565b915061166e8261162d565b602082019050919050565b6000602082019050818103600083015261169281611656565b9050919050565b7f43616e6e6f7420657363726f772030204554482e000000000000000000000000600082015250565b60006116cf601483611166565b91506116da82611699565b602082019050919050565b600060208201905081810360008301526116fe816116c2565b9050919050565b600060608201905061171a60008301866110a3565b6117276020830185611291565b6117346040830184611291565b949350505050565b600060808201905061175160008301876110a3565b61175e60208301866110a3565b61176b6040830185611291565b6117786060830184611291565b95945050505050565b7f436f6e747261637420616c726561647920696e697469616c697a65642e000000600082015250565b60006117b7601d83611166565b91506117c282611781565b602082019050919050565b600060208201905081810360008301526117e6816117aa565b9050919050565b7f4f776e61626c653a206e6577206f776e657220697320746865207a65726f206160008201527f6464726573730000000000000000000000000000000000000000000000000000602082015250565b6000611849602683611166565b9150611854826117ed565b604082019050919050565b600060208201905081810360008301526118788161183c565b9050919050565b7f4f776e61626c653a2063616c6c6572206973206e6f7420746865206f776e6572600082015250565b60006118b5602083611166565b91506118c08261187f565b602082019050919050565b600060208201905081810360008301526118e4816118a8565b905091905056fea26469706673582212207f50984738a91e073aae1606c0185b3a51706da7c8d298868d62418cd315cb1964736f6c63430008110033",
  "linkReferences": {},
  "deployedLinkReferences": {}
}